:020000040800F2
:10000000281B0020DD010008F32900083B2500081B
:10001000F1290008DD030008D530000800000000C9
:100020000000000000000000000000004501000882
:100030005F0400080000000089010008CB2A0008C6
:10004000F7010008F7010008F7010008612A00081D
:10005000F7010008F7010008F7010008F7010008A0
:10006000F7010008F7010008F7010008E1030008A4
:10007000ED030008F9030008050400081104000856
:100080001D040008290400087D020008F70100088B
:10009000F7010008F7010008F7010008F701000860
:1000A000F7010008F7010008F7010008F701000850
:1000B000992B00089B2B0008F7010008F7010008A6
:1000C000F7010008F7010008F7010008F701000830
:1000D000F7010008B1300008BD300008C930000841
:1000E000F7010008F7010008F7010008F701000810
:1000F000F7010008F7010008F7010008F701000800
:10010000F7010008F70100089D2B0008F70100081F
:10011000F7010008F7010008F7010008F7010008DF
:10012000F7010008F7010008F7010008F7010008CF
:10013000DFF80CD000F090F8004800477932000852
:10014000281B0020224B19680868B0E8F00F80F3E4
:100150000988BFF36F8F4FF0000080F311884EF0D5
:100160000D0E70470000000006480068006880F32C
:10017000088862B661B6BFF34F8FBFF36F8F00DFA1
:1001800000BF00BF08ED00E0EFF30980BFF36F8F01
:100190000F4B1A6820E9F00F106008B54FF05000BF
:1001A00080F31188BFF34F8FBFF36F8F03F04CFDC7
:1001B0004FF0000080F31188BDE808401968086816
:1001C000B0E8F00F80F30988BFF36F8F704700BF6E
:1001D0002C000020EFF305807047000006488047A0
:1001E00006480047FEE7FEE7FEE7FEE7FEE7FEE71C
:1001F000FEE7FEE7FEE7FEE7512B000831010008AD
:1002000040EA01039B0703D009E008C9121F08C098
:10021000042AFAD203E011F8013B00F8013B521E18
:10022000F9D27047D2B201E000F8012B491EFBD28F
:1002300070470022F6E710B513460A4604461946F1
:10024000FFF7F0FF204610BD421C10F8011B0029EB
:10025000FBD1801A70470000064C074D06E0E068AD
:1002600040F0010394E8070098471034AC42F6D3FD
:10027000FFF762FFC4430008E4430008014800F0B0
:1002800085B90000D405002070B504460068816877
:10029000C943C9071CD1816821F00101816000F0C8
:1002A000FBFE05460FE000BF00F0F6FE401B0228F3
:1002B00009D9A06A40F01000A062E06A40F0010095
:1002C000E062012070BD20688068C043C007EBD0A9
:1002D000002070BD10B50146406A826A12F0500FCE
:1002E00005D0006A026BBDE8104008461047816ADD
:1002F00041F40071816201688968C1F342410729B4
:100300000CD1017B51B9816A21F480718162816ACB
:10031000C90403D4816A41F00101816200F020F92F
:1003200010BD10B5406A816A41F040018162C16A26
:1003300041F00401C16200F028F910BD10B5406A17
:1003400000F022F910BD0000F8B500260446009622
:1003500000688168C943C90728D0816841F001015C
:100360008160134813490068B0FBF1F000E0401EC3
:1003700000900028FBD100F08FFE054611E000BF81
:1003800000F08AFE401B02280BD9A06A40F0100042
:10039000A062E06A40F00100E06284F8246001207D
:1003A000F8BD20688068C043C007E9D10020F8BDCF
:1003B0002800002040420F00064E074D4FF4005425
:1003C000307808B1012200E000222146284600F0E2
:1003D0005DFEF5E70400002000140140FEE7000088
:1003E000014800F0BDBB000058080020014800F0A3
:1003F000B7BB0000F0090020014800F0B1BB0000CD
:10040000AC090020014800F0ABBB0000E008002070
:10041000014800F0A5BB00009C080020014800F046
:100420009FBB000024090020014800F099BB000098
:100430006809002030B590F840500124AC40C56BED
:100440006C60046863604368102B036803D0996094
:100450000068C26030BD9A600068C16030BD7047FE
:1004600070477047F8B50024009490F82420254682
:10047000012A12D0012280F824204A681F23072A6B
:100480000DD20668776B521E02EB820293409F43A7
:100490000B6893401F43776319E00220F8BD06689C
:1004A0000D2A0AD2376BD21F02EB820293409F4380
:1004B0000B6893401F43376309E0F76A0D3A02EB7C
:1004C000820293409F430B6893401F43F7620A6880
:1004D000072306680A2A0AD3F7680A3A02EB42029F
:1004E00093409F438B6893401F43F76008E0376950
:1004F00002EB420293409F438B6893401F43376156
:100500000A68102A01D0112A20D1124B02689A429F
:1005100017D193681B0219D4936843F400039360C6
:100520000968102912D10C490C4A0968B1FBF2F193
:1005300001EB8101490000E0491E00910029FBD137
:1005400004E0816A41F020018162012480F8245096
:100550002046F8BD002401402800002040420F0042
:100560000068074988420AD1064A0020A2F120010A
:1005700052F8203041F82030401C0828F8DB704742
:1005800000240140B40500207047704710B50446B0
:1005900000684168890626D50168890723D5A16AC4
:1005A000C90603D4A16A41F40071A1628168C1F354
:1005B0004241072910D1217B71B9416821F0200106
:1005C0004160A06A20F48070A062A06AC00403D4D5
:1005D000A06A40F00100A0622046FFF7C1FF216839
:1005E0006FF0120008602068416809062ED5016886
:1005F00049072BD5A16AC90603D4A16A41F4005169
:10060000A1628168C1F30231072909D04168490517
:1006100015D48168C1F34241072910D1217B71B9FA
:10062000416821F080014160A06A20F48050A062FE
:10063000A06AC00503D4A06A40F00100A062204671
:10064000FFF70FFF21686FF00C0008602068416819
:1006500049060DD50068C0070AD0A06A40F4803072
:10066000A062204600F096F821686FF00100086053
:1006700010BD00002DE9F04104004FF000057FD0CF
:10068000A06A002628B9E66284F82460204600F0BB
:1006900083F82046FFF7F8FDA16AC90600D420B10F
:1006A000A06A40F01000A0626AE0A16A21F48851BB
:1006B00041F00201A162334923688B42E16904D110
:1006C000B1F5402F01D14FF40021277B4FF4807CFE
:1006D00041EA470261680A43A168614508D00129DF
:1006E00006D0002194F814E0BEF1010F02D00AE018
:1006F0006146F7E7C7B1A76A47F02007A762E76A34
:1007000047F00107E7625F6827F469470F435F60BE
:10071000236899681C4F394011439960A16861456D
:100720000BD0012909D00CE0DFF860E0A7690EEBDF
:1007300047370F4347F40061E5E7218A0D05A5F52A
:1007400080152168CB6A23F470032B43CB622168A8
:1007500089680F4B1940914208D1E662A16A21F0E5
:10076000020141F00101A162BDE8F081A06A20F020
:10077000020040F01000A062E06A40F00100E06278
:100780000120F1E7003C0140FDF7E1FF00E0FFFF41
:10079000FE0E1FFF7047000070B586B000250646AC
:1007A000009501950295039500682549884245D139
:1007B0002449886940F400708861886900F40070F9
:1007C0000490886940F010008861886900F010008A
:1007D0000490886940F0040088618869032400F06F
:1007E000040004903F20CDE900046946164800F05B
:1007F00051FB3020CDE900046946144800F04AFB63
:10080000144C1348C4E900058020C4E9025080005C
:100810002061800060612020C4E90605204600F0C8
:10082000C3FA08B1FFF71CFE346200220521122032
:10083000666200F0A3FC122000F092FC06B070BDCE
:100840000024014000100240001001400008014057
:1008500008000240580800202DE9F0478946044668
:100860003B4900683B4F0E1D9046884201D0B8427C
:1008700007D1306810F4702F03D001252846BDE859
:10088000F08794F8240001280CD0012084F824007B
:100890002046FFF759FD05004FF0000004D084F812
:1008A0002400EBE70220EAE7A16A40F601629143E7
:1008B00041F48071A1622168B94218D1326812F402
:1008C000702F14D0A16A41F48011A16231684905EA
:1008D00005D5A16A21F4005141F48051A162A16AB9
:1008E000C9040AD5E16A21F00601E16206E0A26AC4
:1008F00022F48012A2624968E9E7E06284F82400E9
:10090000216A15488862216A1448C862216A14481D
:10091000086321686FF0020008602068816841F474
:1009200080718160216843464A464C31206A00F05C
:1009300079FA20688168C1F342410729816803D0B0
:1009400041F48011816099E741F4A001FAE70000C9
:100950000024014000280140D50200083D030008A2
:100960002303000870B5044690F8240001280DD038
:10097000012084F824002046FFF7E6FC02004FF037
:10098000000005D084F82400104670BD022070BD20
:10099000A16A40F60163994341F48071A162224D3E
:1009A00023682249AB4218D10E6816F4702F14D078
:1009B000A66A46F48016A6620E68760505D5A66A74
:1009C00026F4005646F48056A662A66AF6040AD5B6
:1009D000E66A26F00606E66206E0A66A26F48016B7
:1009E000A6625E68E9E7E06284F824006FF0020026
:1009F00018602068436843F02003436020688368E0
:100A0000C3F34243072B05D1A84208D1096811F46A
:100A1000702F04D0816841F480118160B4E781684F
:100A200041F4A001F9E7000000280140042401403E
:100A30002DE9F05F90F821100024022903D0042151
:100A40008163012485E001680A6822F00E020A60D1
:100A500001680A6822F001020A603F4E3E4FB2155B
:100A6000DFF8F4C0DFF8F090DFF8ECA0DFF8E8B0D2
:100A7000DFF8E4E00168783F13011502ACF1640C83
:100A8000A9F15009AAF13C0AABF1280BAEF1140E02
:100A90004FF48018B14227D9B9420ED0614512D027
:100AA00049451DD0514518D0594518D0714501D13F
:100AB000424615E0294EB14201D1012210E0274EF5
:100AC0001436B14201D110220AE0244E2836B14238
:100AD00006D0224A3C32914201D11A4600E02A4611
:100AE0001E49091F0A602BE0B94213D0614517D097
:100AF000494522D051451DD059451DD0714501D1E0
:100B000042461AE0B14202D14FF0807215E0134E16
:100B1000B14201D1012210E0104E1436B14201D190
:100B200010220AE00D4E2836B14206D00B4A3C3264
:100B3000914201D11A4600E02A46074980394A60AD
:100B4000012180F82110002180F82010416B01B1B3
:100B500088472046BDE8F09F80000240080402401C
:100B60002DE9F05FC16B0A6801680B68046C4FF0F7
:100B7000040808FA04F8844D844E854FDFF814C247
:100B8000DFF81492DFF814A2DFF814B2DFF814E2F1
:100B900018EA020F65D05FEA437862D50A689206C8
:100BA00003D40A6822F004020A60DFF8F0814FF4EF
:100BB0008062016808F1140813011402414524D928
:100BC000A9420DD0B1420FD0B9421AD0614515D01B
:100BD000494515D0514501D1120312E0594501D1C3
:100BE00004220EE0714501D140220AE06D4D14351A
:100BF000A94206D06B4A2832914201D11A4600E040
:100C000022466749091F0A6029E0A94213D0B14270
:100C100015D0B94220D061451BD049451BD0514564
:100C200002D14FF4800217E0414502D14FF08062BB
:100C300012E0594501D104220EE0714501D1402254
:100C40000AE0584D1435A94206D0564A283291423E
:100C500001D11A4600E022464B4908394A60C16A70
:100C600071E04FF0020808FA04F818EA020F70D099
:100C70005FEA83786DD50A68920606D40A6822F086
:100C80000A020A60012180F82110DFF810814FF478
:100C90000072016808F1140813011402414524D9B7
:100CA000A9420DD0B1420FD0B9421AD0614515D03A
:100CB000494515D0514501D1120312E0594501D1E2
:100CC00002220EE0714501D120220AE0354D143593
:100CD000A94206D0334A2832914201D11A4600E097
:100CE00022462F49091F0A6029E0A94213D0B142C8
:100CF00015D0B94220D061451BD049451BD0514584
:100D000002D14FF4001217E0414502D14FF00072BA
:100D100012E0594501D102220EE0714501D1202295
:100D20000AE0204D1435A94206D01E4A28329142CD
:100D300001D11A4600E02246134908394A600021D1
:100D400080F82010816A00291CD0BDE8F05F0847B8
:100D5000FFE70825A540154214D01A0712D50A68E6
:100D600022F00E020A6090F84020C36B012101FAC4
:100D700002F25A60816380F82110002180F820106F
:100D8000016BE0E7BDE8F09F080002401C00024054
:100D90003000024044000240580002406C00024013
:100DA000080402401C04024030B560B11A4B0268CE
:100DB00014219A4209D2194B1344B3FBF1F1890073
:100DC000016417490AE0012030BD134B5B42134414
:100DD000B3FBF1F1890001640F490839C1630221B5
:100DE00080F82110136843F6F0718B43F0E9011489
:100DF0002143D0E902452C4321430469214344693E
:100E00002143846921431943116000214163012278
:100E100042770177084630BD08040240F8FFFDBF65
:100E20000000024070B5044690F82000002501281B
:100E30000CD0012084F8200094F821600020012EBD
:100E400006D084F820000225284670BD022070BD1F
:100E5000022684F82160A0632068066826F0010657
:100E600006602046FFF7E6FAE06A0028206801687D
:100E700002D041F00E0106E021F00401016020687B
:100E8000016841F00A0101602068016841F0010138
:100E90000160D9E72DE9F84FDFF8C891002409F186
:100EA000040A0AF1040B23460F270BF1040ED1E0CC
:100EB0000125A54006EA0502AA4276D1DFF8A8C1BD
:100EC0004E68A6EB0C0866452BD00DDC032E34D003
:100ED00005DC36B3012E19D0022E2FD11BE0112EC6
:100EE00016D0122E2AD119E0B8F5881F19D006DCC9
:100EF000B8F5803F15D0B8F5801F1FD111E0B8F5C7
:100F0000001F0ED0B8F5041F18D10AE0CB6815E019
:100F1000CB681B1D12E0CB6808330FE0CB680C33A5
:100F20000CE08B682BB1012B4FF0080303D0456117
:100F300004E0042302E0056100E00023FF2A01D859
:100F4000064601E000F104064FEA840501D9A5F147
:100F50002005D6F8008007FA05FC28EA0C0803FAF9
:100F600005F548EA0508C6F800804D68ED0070D523
:100F70003E4DAE6946F00106AE61AD6924F0030650
:100F800005F0010500953A4D06EB050CDCF808501C
:100F9000A607360F07FA06F825EA0805DFF8D48019
:100FA000404503D14FF0000825E052E0DFF8C8804B
:100FB000404502D14FF001081DE0DFF8C0804045F8
:100FC00002D14FF0020816E0DFF8B480404502D1AC
:100FD0004FF003080FE0DFF8AC80404502D14FF03E
:100FE000040808E0DFF8A080404502D14FF0050872
:100FF00001E04FF0060808FA06F848EA0508CCF8C0
:1010000008804D68D9F80060ED034D4601D51643C0
:1010100000E096432E604D68DAF80060AD03554657
:1010200001D5164300E096432E604D68DBF8006062
:10103000ED025D4601D5164300E096432E604D68F3
:10104000DEF80060AD02754601D5164300E0964318
:101050002E60641C0A681646E2407FF429AFBDE8A2
:10106000F88F000000040140000011100010024041
:101070000000014000080140000C01400010014048
:101080000014014000180140001C01400AB1016138
:1010900070470904FBE700000148806870470000C2
:1010A0001C0000200248816802781144816070476A
:1010B0001C000020074810B5016841F010010160D4
:1010C000032000F07BF80F2000F006F800F024F871
:1010D000002010BD0020024070B50D4D04464FF4B5
:1010E0007A712878B1FBF0F00A490968B1FBF0F099
:1010F00000F089FC48B9102C07D200222146501E6E
:1011000000F03CF800206C6070BD012070BD000054
:101110001C000020280000200F4808B5816941F01C
:1011200001018161816901F001010091C16941F012
:101130008051C161C069002200F0805000900F21F1
:10114000901E00F01BF80548416821F0E06141F075
:101150008061416008BD00000010024000000140B5
:10116000002809DB00F01F020121914040098000A6
:1011700000F1E020C0F8001170470000F0B40E4B01
:101180001B680C46C3F30223C3F10705042D00D9E5
:101190000425191D072901D2002300E0DB1E0126CA
:1011A00006FA05F1491E214099409E40761E1640E0
:1011B0003143F0BC01F0B8BF0CED00E0064900F08F
:1011C000070208684FF6FF03184040EA0220034A6E
:1011D00010430860704700000CED00E00000FA05C5
:1011E000014901200862704700000E4210B52CA48E
:1011F00001461DCC86B08DE81D002DA02D4C006849
:101200000490002004292FD00BDC01292FD00229C3
:1012100028D100F071F96168C1F38131491C49009E
:101220001EE0082920D010291CD161682268D20153
:1012300018D5C1F38342C9031DF8020009D56168BE
:1012400004AAC1F34041515C1B4AB2FBF1F148438F
:1012500001E01A4948436168490203D44000032170
:10126000B0FBF1F006B010BD00F056F9FAE7226AC3
:10127000C2F30121012903D1920701D5C803F1E787
:10128000022905D1626A920702D549F64040E9E792
:101290000329E7D121688903E4D54FF22440E1E72F
:1012A00002030405060708090A0B0C0D0E0F1010A7
:1012B000010200000010024000127A0000093D0007
:1012C0002DE9F84305460078354CC00754D0E06955
:1012D0000026C00008D4E06940F08050E061E06979
:1012E000012600F0805000902E480168C90512D4F4
:1012F0000168804641F480710160FFF7CDFE07462A
:1013000005E000BFFFF7C8FEC01B642823D8D8F84B
:101310000000C005F6D5206A10F4407021D0A988DD
:1013200001F4407181421CD0206A1F49012220F43F
:1013300040700A6000220A602062C00711D0FFF7E7
:10134000ABFE074641F2883808E000BFFFF7A4FE75
:10135000C11B414502D90320BDE8F883206A8007FC
:10136000F4D5206A696820F44070084320621EB1F9
:10137000E06920F08050E0612878800705D560683A
:10138000A96820F44040084360602878C00605D56D
:101390006068696920F48000084360600020DBE732
:1013A0000010024000700040400442422DE9F04726
:1013B0000F46050061D0434E306800F00700B84288
:1013C00009D2306820F0070038433060306800F000
:1013D0000700B84251D128683B4C810712D540071D
:1013E00003D5606840F4E06060602878000703D5AA
:1013F000606840F4605060606068A96820F0F000A8
:10140000084360602878C00728D06868012810D099
:101410002168022810D0890700292EDA616821F09E
:10142000030101436160FFF737FE804641F28839CE
:101430000DE021688903EFE78901EDE7FFF72CFE56
:10144000A0EB0801494502D90320BDE8F087606898
:10145000696800F00C00B0EB810FEFD1306800F04C
:101460000700B8420BD9306820F0070038433060DD
:10147000306800F00700B84201D00120E5E7287885
:10148000400705D56068E96820F4E06008436060C3
:101490002878000706D56068296920F4605040EA82
:1014A000C100606000F038F86168084AC1F30311B8
:1014B000515CC8400649086006480068FFF70CFE0A
:1014C0000020C2E7002002400010024088430008CC
:1014D00028000020200000200448054900684968D1
:1014E000044AC1F30221515CC84070472800002023
:1014F0000010024098430008044805490068496804
:10150000044AC1F3C221515CC84070472800002042
:10151000001002409843000812A185B00FC98DE861
:101520000F0014A0144A006804905168134801F099
:101530000C03042B10D0082B0ED1C1F38343C90335
:101540001DF803000AD5516804AAC1F34041515C5B
:101550000A4A5043B0FBF1F005B0704708494843D0
:10156000FAE7000002030405060708090A0B0C0D40
:101570000E0F1010010200000010024000127A004D
:1015800000093D002DE9F84F040070D02078C04DCF
:10159000C00749D06868C0F38100012807D0686897
:1015A000C0F38100022809D16868C00306D5286805
:1015B000800339D560680028E7D035E06068B0F571
:1015C000803F0BD010B1B0F5A02F11D0286820F4C7
:1015D00080302860286820F4802002E0286840F4E9
:1015E00080302860606890B1FFF756FD06460AE03B
:1015F000286840F480202860F0E700BFFFF74CFD2A
:10160000801B642873D828688003F7D50CE0FFF7A7
:1016100043FD064605E000BFFFF73EFD801B642842
:10162000F0D828688003F7D420789A4E80074FF0CE
:1016300001094FF0000839D5686810F00C0F07D089
:101640006868C0F38100022809D16868C00306D425
:101650002868800714D52069012808D110E0206986
:10166000B0B1C6F80090FFF717FD074605E00AE1A4
:10167000FFF712FDC01B0228C4D828688007F7D5E1
:101680002868616920F0F80040EAC10028600DE098
:10169000C6F80080FFF700FD074604E0FFF7FCFCFA
:1016A000C01B022823D828688007F7D420780007B9
:1016B0002CD57948A169D9B1C0F80090FFF7ECFCAE
:1016C000074604E0FFF7E8FCC01B02280FD8686A51
:1016D0008007F7D571484FF4FA510068B0FBF1F07C
:1016E000009000BF0098411E0091FAD20EE080E009
:1016F000C0F80080FFF7D0FC074604E0FFF7CCFC01
:10170000C01B022875D8686A8007F7D42078400784
:1017100060D5E8690027C00008D4E86940F080502F
:10172000E861E869012700F0805000905C4801689A
:10173000C90513D40168834641F480710160FFF745
:10174000ABFC824606E000BFFFF7A6FCA0EB0A0058
:1017500064284ED8DBF80000C005F5D5E068012804
:101760000AD008B1052813D0286A20F001002862A9
:10177000286A20F0040002E0286A40F00100286294
:10178000E06841F2883B98B1FFF786FC82460BE0A7
:10179000286A40F004002862EEE700BFFFF77CFCF7
:1017A000A0EB0A0159455AD8286A8007F6D50CE003
:1017B000FFF772FC824605E0FFF76EFCA0EB0A0122
:1017C00059454CD8286A8007F6D41FB1E86920F043
:1017D0008050E861E06988B36968C1F3810102293A
:1017E00044D00228C6F8608004D0FFF755FC0446B8
:1017F00038E034E0FFF750FC074604E0FFF74CFC0C
:10180000C01B02282BD828688001F7D4206AB0F5C5
:10181000803F05D16868A16820F400300843686003
:10182000D4E908010843696821F474110843686029
:10183000C6F86090FFF730FC044606E025E000BFE4
:10184000FFF72AFC001B022809D828688001F7D579
:101850001BE000BFFFF720FC001B022802D9032079
:10186000BDE8F88F28688001F4D40EE00128F7D095
:101870006868226A00F48031914204D1616A00F400
:101880007010884201D00120EAE70020E8E700005C
:101890000010024000004242800442422800002022
:1018A000007000407047704710B50446006801683A
:1018B000C90716D04168C90713D0406840072046C1
:1018C00007D5FFF7F0FF21686FF00400486004209F
:1018D00002E0FFF7E7FF0120607421686FF001006C
:1018E000486010BD70B5040003D0607C002610B1C4
:1018F00005E0012070BD2674204600F043F8022068
:101900006074204600F062F8042578BB204601F0A0
:1019100071F858BB2068416821F007014160A06858
:1019200020B11748016821F0010101601448001F2F
:101930000168A26821F46071114301606068411C74
:1019400004D10120FFF752FC80B1401E21688A6853
:1019500022F00F0242EA10428A602168CA6860F3EE
:101960000F02CA60204601F05FF808B16574C0E755
:10197000E67301206073A0736074002070BD0000E6
:10198000306C004008B500680D49884217D1FFF758
:1019900027FC0C48C16941F00061C161C0690A4976
:1019A00000F0006000900120086000220521032063
:1019B000FFF7E4FBBDE808400320FFF7D1BB08BDFB
:1019C00000280040001002403C04424270B5040070
:1019D0000AD02068416821F008014160FFF75CFBF4
:1019E00005464FF47A7608E0012070BDFFF754FBFE
:1019F000401BB04201D9032070BD20684068000739
:101A0000F4D5002070BD10B5401EB0F1807F01D329
:101A1000012010BD4FF0E02460610F21601701F03C
:101A200083FB0020A06107202061002010BD10B5BD
:101A300090F83C20012A22D0012280F83C20CA687C
:101A40008C6822F4407222434C6822F48062224364
:101A50000C6822F4006222430C6922F48052224373
:101A60004C6922F400522243C969002322F48042C7
:101A70000A4301684A6480F83C30002010BD02200F
:101A800010BD70B590F83C20012A19D0012400F84F
:101A90003C4F0222427050F83C3C5A689D6822F04C
:101AA00070060A684968324325F0800529435A6068
:101AB00050F83C2C9160447000210170084670BDC4
:101AC000022070BD2DE9F0410D46040003D094F8CA
:101AD0003D0018B108E00120BDE8F081002084F845
:101AE0003C00204600F03AF8022084F83D002068CF
:101AF000816844F2070291438160211D206801F052
:101B00004FF8226890689169166A2B68AF690343A1
:101B100040F20330814341EA0721A868EF69084396
:101B20004FF6FC418843E96840EA072001432869F1
:101B30002F6A000140EA0730084369686D6926F0A2
:101B4000220646EA051529439360226890612068C1
:101B50000162012084F83D000020BDE730B585B06A
:101B60000025009501950295039502684348444974
:101B7000444C824220D1886940F4006088618869C1
:101B800000F400600490886940F040008861886932
:101B9000694600F0400004904FF42060009001205E
:101BA00002903948FFF776F9606820F0C00040F0F5
:101BB000E06040F0C00045E03448B2F1804F14D0FE
:101BC000334B9A4241D1CA6942F00202CA61CA69E2
:101BD00002F0020204928A6942F004028A61896971
:101BE00001F004010491C02143E0CA6942F00102FE
:101BF000CA61CA6902F0010204928A6942F00402D1
:101C00008A618A6902F0040204928A6942F0080239
:101C10008A61896901F0080104914FF40041009143
:101C20006946FFF737F90820CDE9000569461948EC
:101C30000295FFF72FF9606820F4407040F0E060F3
:101C400040F48070606005B030BD134B9A42FAD109
:101C5000CA6942F00802CA61CA6902F00802049225
:101C60008A6942F004028A61896901F004010491E1
:101C7000032100916946FFF70DF9E4E7002C0140CC
:101C8000001002400000014000180140000801401F
:101C900000040040000C0140000C004010B5044658
:101CA000006891B1042904D00122002100F0BEFF98
:101CB000206801225FF0040100F0B8FF206801688D
:101CC00041F001010160002010BD01220021F3E775
:101CD00010B586B000210091019102910391154C3D
:101CE0000368154802214FF47072A3420DD1836935
:101CF00043F0080383618069CDE9002100F008000A
:101D0000CDE9031069460D480FE00D4CA3420ED1FA
:101D1000836943F0100383618069CDE9002100F0FD
:101D20001000CDE9031069460648FFF7B3F806B086
:101D300010BD00000008004000100240000C0140EF
:101D4000003401400010014070B5044690F83C009A
:101D50000D4601280DD0012684F83C60022084F84D
:101D60003D0042B1042A18D0082A2AD00C2A4DD1AD
:101D700039E0022070BD206800F066FF20688169AC
:101D800041F0080181612068816921F004018161CD
:101D9000206881692A69114311E0206800F084FFFE
:101DA0002068816941F4006181612068816921F4C2
:101DB00080618161206881692A6941EA022181612B
:101DC00024E0206800F0A6FF2068C16941F0080106
:101DD000C1612068C16921F00401C1612068C16945
:101DE0002A69114311E0206800F0C8FF2068C1692A
:101DF00041F40061C1612068C16921F48061C16161
:101E00002068C1692A6941EA0221C16184F83D6004
:101E1000002084F83C0070BD10B5040003D094F895
:101E20003D0010B107E0012010BD002084F83C0007
:101E3000204600F00DF8022084F83D00211D2068A6
:101E400000F0AEFE012084F83D00002010BD00002F
:101E500008B50C4A01680C48914207D1C16941F0AC
:101E60000401C161C06900F0040009E0074A914221
:101E700007D1816941F400518161806900F400500B
:101E8000009008BD000800400010024000340140EE
:101E900010B504460068012200F0C8FE0B49206816
:101EA000884202D00A49884203D1416C41F4004182
:101EB00041642068816801F00701062903D00168A8
:101EC00041F001010160002010BD0000002C014024
:101ED000003401407047000070B502680446106885
:101EE000D168536910F00F0F50D003F0010501F4D1
:101EF000907635435DD0C20705D0CA0503D5E26BA5
:101F000042F00102E263420705D5DA0703D0E26B33
:101F100042F00202E263820705D5DA0703D0E26BE2
:101F200042F00402E263020705D5DA0703D0E26B50
:101F300042F00802E263E26B002A33D0800604D547
:101F4000880602D5204600F0A8FF20684069E16BB2
:101F5000C0F38010090700D428B3204600F086FFA4
:101F60002068416949061AD5416921F04001416163
:101F7000606BA0B11B494163606BFEF759FD0028FF
:101F800010D0606B416BBDE870400847830610D5E8
:101F90008B060ED52046BDE8704000F07EBF20467F
:101FA000FFF798FF70BD2046FFF794FF0020E06325
:101FB00070BD030606D50B0604D52046BDE870406B
:101FC00001F012B84006F3D54806F1D5D168204695
:101FD00021F04001D160202184F8391000F0ACFAE2
:101FE00070BD0000CD2D000870B5040004D094F839
:101FF0003900002510B106E0012070BD84F838508A
:10200000204600F023F8242084F839002068C168B5
:1020100021F40051C160204600F08AFF2068016968
:1020200021F4904101612068416921F02A01416158
:102030002068C16841F40051C160E563202084F844
:10204000390084F83A00002070BD00002DE9F0430B
:1020500085B0002500950195029503950446DFF8AB
:102060005482D0F800C0944802210322934B1027D9
:1020700080264FF48069C44559D1D0F818C04CF47B
:10208000804CC0F818C0D0F818C00CF4804CCDF8C3
:1020900010C0D0F818C04CF0040CC0F818C080690B
:1020A000039200F0040004900802CDE900016946A3
:1020B00098461846FEF7EEFECDE900956946404683
:1020C0000295FEF7E7FEDFF8FC817D494046B14608
:1020D000C0E90015C0E90256C8F81050C8F81450FD
:1020E000C8F81850C8F81C50FEF75EFE08B1FEF79D
:1020F000B7F97348744EC4F834801438C8F82440D3
:102100003060C6E90175C6E903957561B561304671
:10211000F561FEF749FE08B1FEF7A2F92663002239
:10212000052125207462FFF729F8252062E0DFF8F9
:102130009C81C44563D1D0F81CC04CF4003CC0F86D
:102140001CC0D0F81CC00CF4003CCDF810C0D0F876
:1021500018C04CF0040CC0F818C08069039200F05D
:10216000040004900420CDE9000169469846184611
:10217000FEF790FE0820CDE90005A94669464046D5
:102180000295FEF787FEDFF848814D49404614313D
:10219000C0E90015C0E90256C8F81050C8F814503C
:1021A000C8F81850C8F81C50FEF7FEFD08B1FEF73D
:1021B00057F94348474DC4F834802830C8F82440C4
:1021C000C5E90007C5E90296C5F81090C5F8149056
:1021D000C5F818902846C5F81C90FEF7E5FD08B133
:1021E000FEF73EF925630022052126206C62FEF7EA
:1021F000C5FF2620FEF7B4FF05B0BDE8F083364BDF
:102200009C45F9D1C36943F48023C361C36903F4D6
:1022100080230493836943F0080383618069CDE9D7
:10222000009100F00800CDE90320DFF8B080694696
:102230004046FEF72FFE4FF40060CDE900056946E9
:1022400040460295FEF726FEDFF894801C49404682
:102250002839C0E90015C0E90256C8F81050C8F87E
:102260001450C8F81850B146C8F81C50FEF79CFD31
:1022700008B1FEF7F5F812481A4EC4F834803C381D
:10228000C8F824403060C6E90175C6E90395756158
:10229000B5613046F561FEF787FD08B1FEF7E0F85D
:1022A00026630022052127207462FEF767FF27209E
:1022B000A0E7000000380140001002400008014083
:1022C000580002409C080020E00800200044004024
:1022D000240900206809002000480040000C01404B
:1022E000AC090020F0090020F8B5044690F83A0047
:1022F00020283CD1C1B3BAB394F83800012836D0B5
:10230000012084F83800A162A2850025E56322201F
:1023100084F83A00636B17489862636B1648D8627A
:10232000636B16481863606B134645630846666B1B
:10233000216802463046091DFEF774FD20680168D9
:102340004168009184F83850C16841F48071C160DF
:102350002068416941F0010141612068416941F013
:10236000400141610020F8BDFFE70120FBE70220AA
:10237000F9E70000272E0008632E0008DD2D000875
:102380002DE9F041054600683149324E324C4FF09C
:102390008077884218D1012230493148FFF7A4FFE5
:1023A00030702088C1B24A1CB2EB102F09D02B48E4
:1023B000214400788870208807EB30204FEA306095
:1023C00020802748006840682649286888421CD138
:1023D000012225492548FFF787FF7070B4F80211E4
:1023E000C8B2421CB2EB112F0CD01F49204409780F
:1023F00080F80411B4F8020107EB30204FEA306096
:10240000A4F8020119480068406819492868884200
:102410001CD1012217491848FFF766FFB070B4F8C5
:102420000412C8B2421CB2EB112F0CD01149204447
:10243000097880F80612B4F8040207EB30204FEA5E
:102440003060A4F804020C4800684068BDE8F081E0
:1024500000380140000000208C0000200500002012
:10246000980700200044004006000020D807002004
:1024700000480040070000201808002070472DE9A0
:10248000F843044690F839001F4616460D462028AA
:1024900050D1A5B19EB194F8380001284AD001204E
:1024A00084F838004FF00008C4F83C80212084F8FC
:1024B0003900FEF7F1FDA6848146E68426E001207E
:1024C000BDE8F883E08C401EE084A0684B46B0F580
:1024D000805F4FF000024FF080012046009703D04C
:1024E00000F0B3FDE8B90DE000F0AFFDC8B92888F1
:1024F0002168C0F308004860206908B16D1C05E040
:10250000AD1C03E0216815F8010B4860E08C002841
:10251000D8D14B46002240212046009700F095FD7F
:1025200008B10320CCE7202084F8390084F83880F3
:102530000020C5E70220C3E77047FEE7FEB5002193
:10254000294800910191274A029102609215826008
:1025500001240473017508254FF460220561C261EE
:102560004160FEF787F80426CDE900640724694638
:102570001D480294FDF776FF05270220CDE9007083
:1025800069461948FDF76EFF0A200090032001906C
:1025900069461548FDF766FF0B20CDE90006694640
:1025A0001148FDF75FFF0C20CDE9000769460E4892
:1025B000FDF758FF0D2000900620019069460A485B
:1025C000FDF750FF0E20CDE9000469460648FDF7EF
:1025D00049FF0F20CDE9000569460348FDF742FF9A
:1025E000FEBD000000240140D4050020214808B5AC
:1025F000416941F0010141614069002200F00100A0
:10260000009005210B20FEF7B9FD0B20FEF7A8FD79
:10261000002205210C20FEF7B1FD0C20FEF7A0FDE5
:10262000002205210D20FEF7A9FD0D20FEF798FDE3
:10263000002205210E20FEF7A1FD0E20FEF790FDE1
:10264000002205210F20FEF799FD0F20FEF788FDDF
:10265000002205211020FEF791FD1020FEF780FDDD
:10266000002205211120FEF789FDBDE80840112058
:10267000FEF776BD0010024070B586B000242048F9
:102680000094019402940394816941F010018161E6
:10269000816901F010010491816941F004018161B7
:1026A000816901F004010491816941F04001816177
:1026B000816901F040010491816941F00801816163
:1026C000816901F008010491816941F02001816173
:1026D00080690C4E00F020004FF47F4504900022EA
:1026E00029463046FEF7D2FC01200095CDE90104D1
:1026F0000220039069463046FEF7CCFB06B070BD61
:10270000001002400014014010B58CB0242168462E
:10271000FDF78FFD00241348099411490A94C0E97C
:1027200000144FF6FF71C0E9024104614461846105
:102730000320CDE900040120CDE902040494CDE991
:1027400005400794694607480894FFF7BBF90994C8
:1027500009A904480A94FFF794F90CB010BD0000D1
:10276000002C01401806002010B58CB024216846CA
:10277000FDF75FFD0024124809944FF080410A9450
:10278000C0E900144FF6FF71C0E9024104618461A1
:102790000320CDE900040120CDE902040494CDE931
:1027A00005400794694606480894FFF78BF9099499
:1027B00009A903480A94FFF764F90CB010BD0000A2
:1027C0005806002010B58CB024216846FDF731FD75
:1027D00000241248099410490A94C0E900144FF6E5
:1027E000FF71C0E90241046184610320CDE9000466
:1027F0000120CDE902040494CDE90540079469461F
:1028000006480894FFF75EF9099409A903480A9459
:10281000FFF737F90CB010BD000400409806002007
:1028200010B58AB0002407941C2168460894FDF76F
:1028300000FD1948174901601821C0E90114FF2162
:10284000C0E903148461FFF7E7FA079407A9124867
:102850000894FFF716F96020CDE9000402940022E5
:1028600069460D480494FFF76FFA042269460A4846
:10287000FFF76AFA082269460748FFF765FA0C2253
:1028800069460548FFF760FA0348FFF721FA0AB0E6
:1028900010BD000000080040D806002010B58CB024
:1028A00024216846FDF7C5FC00241248099410490C
:1028B0000A94C0E900144FF6FF71C0E902410461B7
:1028C00084610320CDE900040120CDE902040494D1
:1028D000CDE905400794694606480894FFF7F2F8E9
:1028E000099409A903480A94FFF7CBF80CB010BD6E
:1028F000000C00401807002010B592B000240F947F
:102900001C2168461094FDF794FC202107A8FDF7D0
:1029100090FC21481F4901601821C0E90114FF21E2
:10292000C0E9031444618461FFF776FA0F940FA99C
:1029300019481094FFF7A5F86020CDE9000402942F
:102940000394049405940022694613480694FFF703
:10295000FBF9042269461048FFF7F6F90822694698
:102960000D48FFF7F1F90C2269460B48FFF7ECF927
:102970000794089409944FF400500A94CDE90B4051
:1029800007A905480E94FFF752F80348FFF7A0F98E
:1029900012B010BD00340140580700200E4F0F4DFB
:1029A0004FF400444FF47A76387808B10CA000E078
:1029B0000DA000F05BF8012221462846FEF766FBD9
:1029C000304600F05DFD002221462846FEF75EFB02
:1029D000304600F055FDE7E70400002000140140F8
:1029E0004C4544204F4E00004C4544204F46460085
:1029F000FEE7704770B50446FEF74EFB05464FF400
:102A00007A7606E0FEF748FB401BB04201D903206E
:102A100070BD206840688006F4D52068416841F0A8
:102A200010014160002070BD70B504460068416827
:102A300021F010014160FEF72FFB05464FF47A7636
:102A400007E000BFFEF728FB401BB04201D903207E
:102A500070BD206840688006F4D5002070BD00007D
:102A60000148FEF721BF00000406002038B50446E7
:102A700009A0006800902046FDF7E6FB82B21E2305
:102A800021460648FFF7FBFC0A2302226946034859
:102A9000FFF7F5FC38BD00000D0A00009807002084
:102AA00000EBC011054830F81100C1B2B1EB102F96
:102AB00001D100207047A1EB102070478C0000204E
:102AC00000B500F0C1FBC0B200BD10B5FEF7EAFAD8
:102AD00001F0E2FA012803D0BDE8104001F036B958
:102AE00010BD30B595B028216846FDF7A2FB142132
:102AF0000AA8FDF79EFB18210FA8FDF79AFB0920F5
:102B0000012100904FF48030002404910691CDE91A
:102B100001040225CDE907504FF4E0100990684602
:102B2000FEF730FD0F20CDE90A056802CDE90C4023
:102B300002210AA80E94FEF739FC03200F90280208
:102B40001090800111900FA8FEF7BAFB15B030BDB0
:102B50000D48016841F00101016041680B4A1140D4
:102B6000416001680A4A11400160016821F4802136
:102B70000160416821F4FE0141604FF41F01816052
:102B80000449C00308607047001002400000FFF8CD
:102B9000FFFFF6FE08ED00E0704770477047000049
:102BA000F0B502681C4B1D4D1D4E1E4F1E4C4FF0C4
:102BB000804C984209D0A04207D0604505D0A84279
:102BC00003D0B04201D0B84204D122F0700E4A685E
:102BD00042EA0E02984209D0A04207D0604505D0D3
:102BE000A84203D0B04201D0B84203D122F44075CC
:102BF000CA682A434D6922F080022A4302608A682B
:102C0000C2620A688262984201D0A04201D1096979
:102C1000016301214161F0BD002C0140000400402E
:102C200000080040000C00400034014010B501F0E5
:102C30001F030121046A99408C430462016A9A408F
:102C40001143016210BD0000F0B5026A22F00102DA
:102C50000262036A42688469124E24F073050C68AC
:102C60002C4323F002058B682B430D4DA84201D065
:102C7000B04205D123F00807CB683B4323F004039F
:102C8000A84201D0B04205D14D6922F440721543EB
:102C90008A692A4342608461496841630362F0BDE6
:102CA000002C014000340140F0B5026A22F010020D
:102CB0000262026A436884690D6824F4E64444EAC7
:102CC00005248D6822F0200242EA05120F4D104EB5
:102CD000A84201D0B04206D1CF6822F0800242EA79
:102CE000071222F04002A84201D0B04207D14D693C
:102CF00023F4406343EA85038D6943EA8503436017
:102D00008461496881630262F0BD0000002C0140CB
:102D100000340140F0B5026A22F480720262026A55
:102D20004368C46922F4007224F073050C68124EE3
:102D30002C438D6842EA05220E4DA84201D0B042D4
:102D400006D1CF6822F4006242EA072222F48062B0
:102D5000A84201D0B04207D14D6923F4405343EA61
:102D600005138D6943EA05134360C4614968C16373
:102D70000262F0BD002C01400034014030B5026A0F
:102D800022F480520262046A4268C3690D6823F427
:102D9000E64343EA05238D6824F4005444EA0534ED
:102DA000084DA84202D0084DA84204D14D6922F432
:102DB000804242EA85124260C3614968016404624C
:102DC00030BD0000002C01400034014010B5406AC5
:102DD0000021C185C184FFF77DF810BD70B5446A3C
:102DE0002068406994F83910C0F3C01000252129EB
:102DF00004D118B1E584204600F046F82068406907
:102E000094F83A10C0F38010222904D118B1E58556
:102E1000204600F02BF8E06B40F01000E063204605
:102E2000FFF758F870BD10B50146406A0968096897
:102E3000890613D40021C1850168CA6822F4807212
:102E4000CA6001684A6922F001024A6101684A6960
:102E500022F040024A61202180F83A10FFF790FAF0
:102E600010BD10B5406AFFF709FB10BD0168CA68C4
:102E700022F49072CA6001684A6922F001024A6134
:102E8000202180F83A1070470168CA6822F0C00219
:102E9000CA60202180F83910704710B590F83A10B8
:102EA000222901D0022010BD8168B1F5805F11D0C8
:102EB0000169002901681FD0496801F07F03816A18
:102EC0004A1C82620B70C18D491E0904090CC18520
:102ED00018D02BE00269816A002A0268526805D086
:102EE000D2B20A80816A491C8162ECE7C2F308020F
:102EF0000A80816A891CF7E74A68816A4B1C8362F1
:102F00000A70E0E70168CA6822F02002CA6001681E
:102F1000CA6822F48072CA6001684A6922F001021C
:102F20004A61202180F83A10FFF72AFA002010BDEC
:102F30002DE9F041044600680169E26821F440513E
:102F4000114301612169A068084361690843216850
:102F5000CA6841F20C639A430243CA60206841691F
:102F6000A26921F44071114341611E492068642522
:102F70003226884202D1FEF7BFFA01E0FEF7ACFA32
:102F800000EBC00101EB001160686FF018078000D2
:102F9000B1FBF0F2B2FBF5F2B1FBF0F37A4303EBD5
:102FA0008202B1FBF0F306EB0212B2FBF5F2B3FBC7
:102FB000F5F302F0F00202EB0312B1FBF0F3B1FB08
:102FC000F0F0B0FBF5F0784303EB800006EB001067
:102FD000B0FBF5F0216800F00F0010448860BDE8F8
:102FE000F08100000038014090F83910212901D00B
:102FF000022070478168B1F5805F016A0BD04A1CDE
:103000000262026809785160C18C491E0904090CEA
:10301000C1840ED017E009880268C1F3080151602D
:1030200001690029016A02D0491C0162ECE7891C90
:10303000FBE70168CA6822F08002CA600068C168C4
:1030400041F04001C160002070472DE9F0419846F1
:1030500017460E460446069D1DE0681C1BD02DB188
:10306000FEF71AF8A0EB0800A84214D92068C1683E
:1030700021F4D071C1602068416921F001014161F2
:10308000202084F8390084F83A00002084F83800C1
:103090000320BDE8F0812068006836EA000004D013
:1030A0000020B842D9D00020F3E70120F9E7000062
:1030B0000148FEF711BF0000980700200148FEF705
:1030C0000BBF0000D80700200148FEF705BF000035
:1030D00018080020FEE700000748012447F60573A2
:1030E0000168064800254A6A42609A4201DD047080
:1030F000F9E70570F7E7000018060020040000203B
:103100000FB4084B10B504A902AA039800F02BF8DD
:10311000044602A9002000F091F8204610BC5DF89A
:1031200014FB00003D3200080907090E002804DBEB
:1031300000F1E02080F80014704700F00F0000F16B
:10314000E02080F8141D704702E008C8121F08C173
:10315000002AFAD170477047002001E001C1121F18
:10316000002AFBD170472DE9F84F994692468846D0
:103170000546002706E025280AD051464A469047D2
:103180006D1C7F1C28780028F5D13846BDE8F88FE3
:10319000002315F8011F18462E2915D115F8011F17
:1031A00004232A290DD06FF02F022978A1F13004D1
:1031B000092C09D800EB800002EB400008446D1C8C
:1031C000F3E758F8040B6D1C2A78002ADDD0632A37
:1031D00007D0732A0FD0104651464A4690477F1CAD
:1031E0002AE018F8042B8DF8002000218DF801103A
:1031F0006E46012103E058F8046B4FF0FF315A0787
:103200004FF0000401D409E0641C84420BDA8C42C4
:10321000FADB325D002AF7D105E0641C8C42FCDB4E
:10322000305D0028F9D1274404E016F8010B51461F
:103230004A469047641EF8D26D1CA3E70A68531CE7
:103240000B601070704700000A4900EBC01231F8A3
:103250001200C3B2B3EB102F02D14FF0FF30704712
:1032600001EB420101EB1022012303EB1020487017
:10327000907870478C00002090B0FDF71BFFFFF79F
:1032800030FCFFF7F9F9FFF7B1F9694867490160C8
:103290004FF0FF3141604FF480718160FEF722FBF7
:1032A000654864494FF4E13500240160C0E90154E8
:1032B0000C26C460C0E904468461C461FEF794FE34
:1032C0005D485E4940300160C0E90154C460C0E916
:1032D00004468461C461FEF787FE57485849803030
:1032E0000160C0E90154C460C0E904468461C4615E
:1032F000FEF77AFEFFF794FAFFF7FEFAFFF71EF9E2
:10330000FFF702FAFFF730FAFFF75CFAFFF7C6FAA9
:1033100001224C494848FEF7E7FF4A494648012246
:10332000491C4030FEF7E0FF464943480122891C12
:103330008030FEF7D9FF40480C21C038FEF7A8FDC9
:103340003D4800214038FEF7A3FD3B4808214038A6
:10335000FEF79EFD38480C214038FEF799FD3449B0
:103360000822503901F12000FDF776FA3048303854
:10337000FDF7F8FA2E483C211430FEF78FFC2C485C
:103380003C215430FEF78AFC29483C219430FEF75A
:1033900085FC29483C218038FEF780FC2AA0FFF7F5
:1033A00065FB0FA80F9400F077F8264C1422641EDA
:1033B0002A4960616846FCF723FF0021684600F057
:1033C0006EF82649A0601422143105A8FCF718FFF6
:1033D000002105A800F063F82049E060142228319C
:1033E0000AA8FCF70DFF00210AA800F058F8206198
:1033F00000F04DF80020FFF753FB0028FAD0002022
:10340000FFF75EFB0446024615A11748FFF778FE5A
:103410001548FFF72BFB612C05D0732CEAD113A0C4
:10342000FFF724FBE6E712A0FAE7000000280040BF
:1034300004060020003801409807002000440040A6
:103440000048004005000020535441525420484F8A
:10345000494C4F44202E2E2E20474F004C4300084D
:10346000433A256300000000940400204F464600C4
:103470004F4E000001460020842900D0C81C704730
:1034800010B500B9012000F057FB002010BD10B5A9
:1034900000F09EFB002010BD012000F06DBC3EB589
:1034A00004460D46B0F90800FFF7E4FF02A9CDE994
:1034B0000001208A2B4682B2D4E9001000F0C0FD42
:1034C000012801D000203EBD02983EBD2DE9F0410B
:1034D000184C0F46054666692068001D00F072FA18
:1034E00038B9206890F82C1001208840A1698143E8
:1034F000A161681C07D137B12168BDE8F0410E48D1
:10350000091D00F098BA20683544B542456021682D
:1035100005D2A068BDE8F041091D00F074BA6068EA
:10352000091D00F070FA206B854200D22563BDE8CA
:10353000F08100002C000020100B00202DE9F0414C
:10354000054600F085FA2E4C2069401C2061206859
:103550002C4F10B1E06940B32DE0256020690128AF
:1035600029D1002606EB860007EB800000F03DFA2B
:10357000761C072EF6D323488C3000F036FA21480B
:10358000A03000F032FA1F48B43000F02EFA1D4887
:10359000C83000F02AFA1B48DC3000F026FA19483F
:1035A0008C3060601430A06005E02068E96AC06A71
:1035B000884200D82560E06A401CE062E96A012088
:1035C000A26988401043A06101EB810007EB8000F5
:1035D000291D00F030FA00F05BFAE06900280CD0F9
:1035E0002068E96AC06A884207D207494FF08050D4
:1035F0000860BFF34F8FBFF36F8FBDE8F08100000D
:103600002C000020340A002004ED00E02DE9F041F8
:10361000856B174604460026026C82B1C7B1E0688C
:10362000FCF7EEFDE168206C091AE1602268914226
:1036300002D26168081AE060022F16D017E02068F5
:10364000A8B9606800F09AFD0646002060600EE0B0
:10365000A068FCF7D5FD216CA0680844A0606168F3
:10366000884204D32068A06001E005B16D1E6D1C86
:10367000A5633046BDE8F08110B50446006B00F04C
:103680001BFA2046BDE8104000F016BA10484FF46F
:103690004061420706D0C01D0D4920F00700411AC5
:1036A000C1F540610B4A00230144C2E90003083917
:1036B000103A21F0070111604B600B600B1AC0E952
:1036C000001393604FF000405360D06070470000DB
:1036D000240B002078000020144E154CA6F1C807DA
:1036E0004FF08058DFF84C9012E000BF00F0B0F9C6
:1036F000F068C568281D00F065F92069401E20614A
:10370000E068401EE06000F0C3F92846FFF7B4FF10
:10371000E0680028EAD138680128F9D9C9F80080A2
:10372000BFF34F8FBFF36F8FF2E70000FC0A00205A
:103730002C00002004ED00E02DE9F0479A46DDE979
:10374000098481466FF00303206B03EB820210446F
:10375000089D20F00706700707D0502080F31188DD
:10376000BFF34F8FBFF36F8FFEE723180A5C83F818
:1037700034200A5C12B1401C1028F6D3002784F8CC
:103780004370072D00D30625E562C4E91157201DBB
:1037900000F036F904F1180000F032F92461C5F1A7
:1037A00007006462A061E76484F85070524649469D
:1037B000304600F0F5F82060B8F1000F01D0C8F8ED
:1037C0000040BDE8F087000030B5114900E0114627
:1037D0000A688242FBD34B685C18844203D140687C
:1037E00018444860084643681C18944209D1084CA4
:1037F000103C2468A24209D052681A4442600A6808
:1038000012680260814200D0086030BD0460F9E7B0
:103810007800002006484168096829B14168C968F4
:10382000C9684968016370474FF0FF31FAE700004B
:103830002C00002008484068401C4FF0500080F3E6
:10384000118804D0BFF34F8FBFF36F8FFEE7BFF334
:103850004F8FBFF36F8FFEE7800000202DE9F0410E
:10386000044600F0F5F894F9455004F1240609E007
:10387000606A48B1304600F0CDFC08B100F08AF92A
:103880006D1E6DB2002DF3DC4FF0FF3684F84560FD
:1038900000F0FEF800F0DCF894F9445004F1100751
:1038A00009E0206948B1384600F0B4FC08B100F0E6
:1038B00071F96D1E6DB2002DF3DC84F84460BDE833
:1038C000F04100F0E5B800002DE9F0410546002781
:1038D00000F0B2F9314E306808B9FFF7D7FEF06852
:1038E00005424BD1C5B3083568070ED005F0070077
:1038F000C0F108000544680707D0502080F3118804
:10390000BFF34F8FBFF36F8FFEE72DB37068854213
:1039100034D82248103001460C6801E020460C469D
:103920006168A94202D221680029F7D131688C422E
:1039300024D007682168016060680837411B10299E
:103940000FD96019420708D0502080F31188BFF3C7
:103950004F8FBFF36F8FFEE710E041606560FFF7A8
:1039600033FF61687068401A7060B268904200D29C
:10397000B060F06801430020C4E9000100F084FC5D
:10398000780707D0502080F31188BFF34F8FBFF323
:103990006F8FFEE73846BDE8F08100006800002028
:1039A00010B5031F4FF080741C601B1F21F0010134
:1039B0001960191F024B0B60143940380A6010BDA2
:1039C00035380008D0E9013201699A60D0E9012355
:1039D0005A604A68824201D182684A6000220261CC
:1039E0000868401E08600868704700F108014FF041
:1039F000FF32C0E90112C16001610021016070471E
:103A000000210161704730B50B685A1C02D000F1EB
:103A1000080202E0026904E02246546825689D42DB
:103A2000FAD953684B6099608A60516008610168F7
:103A3000491C016030BD42684A6093688B6093689E
:103A40005960916008610168491C0160704700007D
:103A5000502080F31188BFF34F8FBFF36F8F0A4957
:103A60004868401C486001280CD10848006810F0E4
:103A7000FF0F07D0502080F31188BFF34F8FBFF3A3
:103A80006F8FFEE7704700008000002004ED00E02B
:103A90000849486828B1401E486001D180F3118868
:103AA0007047502080F31188BFF34F8FBFF36F8FA3
:103AB000FEE700008000002070B5002827D0144DDC
:103AC000A0F108046168E868014207D1502080F342
:103AD0001188BFF34F8FBFF36F8FFEE722683AB1B3
:103AE000502080F31188BFF34F8FBFF36F8FFEE735
:103AF0008143616000F0A0F860686968084468600C
:103B00002046FFF761FEBDE8704000F0BDBB70BD10
:103B1000680000204FF0E02000210161816105492B
:103B20004FF47A720968B1FBF2F1491E4161072135
:103B3000016170472800002010B5020014D00F4822
:103B4000806B38B1502080F31188BFF34F8FBFF3E3
:103B50006F8FFEE700F070F800211046FFF7B6FC0B
:103B600000F092FB002807D105494FF08050086013
:103B7000BFF34F8FBFF36F8F10BD00002C000020EC
:103B800004ED00E002498A6A0260496941607047B9
:103B90002C00002001490120486270472C000020C1
:103BA00010B50C4650B1094909681831FFF72BFFD1
:103BB0002046BDE810400121FFF788BC502080F36B
:103BC0001188BFF34F8FBFF36F8FFEE72C000020EB
:103BD0001CB515480024CDE900402346802213A1DE
:103BE000144800F02DFA012809D0401C1AD15020A9
:103BF00080F31188BFF34F8FBFF36F8FFEE7502024
:103C000080F31188BFF34F8FBFF36F8F06484FF0DB
:103C1000FF31343801630121C1614461BDE81C40BA
:103C200000F040B81CBD00006000002049444C4535
:103C300000000000D93600080248816B491C8163EE
:103C4000704700002C0000201448816B11B1012145
:103C500041627047002141628169B1FA81F1C1F18D
:103C60001F0101EB81020E4951F822306BB101EBCB
:103C7000820101F108034A6852684A609A4201D100
:103C800052684A60D16801607047502080F3118803
:103C9000BFF34F8FBFF36F8FFEE700002C000020B3
:103CA000340A00201CB5264908780190FF200870CE
:103CB00008788DF800009DF800009DF8002000F0C5
:103CC000F000904207D0502080F31188BFF34F8F4F
:103CD000BFF36F8FFEE79DF800001A4B00F0500015
:103CE00018700720986005E09DF8002052008DF8BC
:103CF0000020401E9DF800201206F5D4986003288D
:103D000007D0502080F31188BFF34F8FBFF36F8F20
:103D1000FEE74FF440709860019808700A48016807
:103D200041F470010160016841F070410160FFF7EA
:103D3000F1FE00205860FCF717FA00201CBD0000BF
:103D400000E400E08000002020ED00E010B55020ED
:103D500080F31188BFF34F8FBFF36F8F00F0AAF984
:103D600018B104494FF080500860002080F311889A
:103D700010BD000004ED00E010B502460021012056
:103D800000F00CF8041E07D00021416001600B46D2
:103D90000A46C16000F06AF8204610BD70B50E46B4
:103DA000050013D0D6B105FB06F04830FFF78CFDB7
:103DB000040009D004F1480120468EB10160C0E939
:103DC0000F56012100F00EF8204670BD502080F300
:103DD0001188BFF34F8FBFF36F8FFEE70020E4E73A
:103DE0000060ECE770B50D46040025D0FFF730FE0B
:103DF000D4E90F20216802FB001161600021A1635A
:103E00002168A1600A46D4E90F01401E00FB012190
:103E1000E16021464FF0FF3001F8440F487004F193
:103E200010008DB1FFF7E1FD04F12400FFF7DDFD87
:103E3000FFF72EFE012070BD502080F31188BFF3E4
:103E40004F8FBFF36F8FFEE721690029F0D000F09C
:103E5000E1F90028ECD004494FF080500860BFF32E
:103E60004F8FBFF36F8FE3E704ED00E02DE9FF47CD
:103E700082B01D468A464FF00008040003D0BAF114
:103E8000000F08D011E0502080F31188BFF34F8F4E
:103E9000BFF36F8FFEE7206C38B1502080F311889C
:103EA000BFF34F8FBFF36F8FFEE7022D0AD1E06B98
:103EB000012807D0502080F31188BFF34F8FBFF344
:103EC0006F8FFEE700F0E8F83F4F4FF000094FF02A
:103ED000805648B9049838B1502080F31188BFF358
:103EE0004F8FBFF36F8FFEE7FFF7B2FDA06BE16B63
:103EF000884207D3022D05D00498D0B1B8F1000F45
:103F00001AD01EE02A4651462046FFF77FFB616A21
:103F100019B104F1240000F07DF920B13E60BFF337
:103F20004F8FBFF36F8FFFF7B3FD012006B0BDE8E1
:103F3000F087FFF7ADFD22E06846FFF723FE4FF064
:103F40000108FFF7A5FDFFF777FEFFF781FD94F964
:103F50004400401C01D184F8449094F94500401C71
:103F600001D184F84590FFF793FD04A9684600F05D
:103F70002DF830B12046FFF771FC00F085F90020E4
:103F8000D4E7FFF765FDA06BE16B884213D1FFF723
:103F90007FFD04F110000499FFF702FE2046FFF7B1
:103FA0005DFC00F071F900289ED13E60BFF34F8F99
:103FB000BFF36F8F98E7FFF76BFD2046FFF74EFCCE
:103FC00000F062F990E7000004ED00E02DE9F04117
:103FD0000C46050011D0C4B1FFF73AFD174B5A69E2
:103FE0006E682068911B471C17D02F689B6A9F4200
:103FF00019D0964217D8012410E0502080F3118880
:10400000BFF34F8FBFF36F8FFEE7502080F311880F
:10401000BFF34F8FBFF36F8FFEE70024FFF738FD2C
:104020002046BDE8F081884205D9401A2060284624
:10403000FFF7A8FDF1E700202060DCE72C0000205E
:104040002DE9FF5F8346DDE90E87994616468A46CD
:104050009000FFF739FC05001AD05420FFF734FC1C
:10406000040012D025630021CDE90241CDE900878B
:104070004B46324651465846FFF75EFB2046FFF757
:104080005DFA012004B0BDE8F09F2846FFF714FD5B
:104090004FF0FF30F6E700000548C16919B1806BA9
:1040A00018B10020704701207047022070470000BF
:1040B0002C0000202DE9F0412E4C0027A06B40B1D0
:1040C000206A401C2062606A00B101273846BDE8C2
:1040D000F0816669761C666113D16068006838B14A
:1040E000502080F31188BFF34F8FBFF36F8FFEE72F
:1040F0006068A1686160A060A06A401CA062FFF7D0
:1041000089FB206BDFF87080864209D36068006805
:1041100080B16068C068C568686886420DD2206357
:104120002068C06A00EB800158F821000128CAD934
:104130000127C8E74FF0FF30F1E7281DFFF742FCE9
:10414000A86A18B105F11800FFF73CFCE86A0121E4
:10415000A26981401143A16100EB800108EB81005D
:10416000291DFFF768FCE86A2168C96A8842CDD337
:104170000127CBE72C000020340A002070B5040092
:104180004FF0000140D0214D2868844207D05020D4
:1041900080F31188BFF34F8FBFF36F8FFEE7A06CE2
:1041A00038B1401EA064636CE26A9A422CD040B1E0
:1041B0002AE0502080F31188BFF34F8FBFF36F8F39
:1041C000FEE7201DFFF7FEFB114A012150B9E06A0E
:1041D00000EB800352F8233023B9AB6901FA00F0F9
:1041E0008343AB61606CE062C0F10700A061E06AEC
:1041F000AB6981401943A96100EB800002EB8000AC
:10420000211DFFF718FC0121084670BD2C0000207D
:10421000340A00202DE9F041C068C468ACB104F153
:1042200018000746FFF7CEFB154DA86B0126A0B17D
:1042300039461448FFF7FFFBE06A2968C96A8842DB
:104240001CD901206E62BDE8F081502080F31188F6
:10425000BFF34F8FBFF36F8FFEE7201DFFF7B2FB59
:10426000E16AAA6906FA01F01043A86101EB810036
:104270000449B43901EB8000211DDBE70020E2E7AF
:104280002C000020E80A00202DE9F0472C4D0024E6
:104290002746A86B38B1FFF7DBFBA86B401EA8636D
:1042A000A86B40B146E0502080F31188BFF34F8FD8
:1042B000BFF36F8FFEE72969224E0120D1B3A6F12B
:1042C000B40980463068E8B1F068C46804F11800A9
:1042D000FFF778FB201DFFF775FBE06AAA6908FA73
:1042E00000F11143A96100EB800109EB8100211D60
:1042F000FFF7A1FBE06A2968C96A8842E2D3C5F8E2
:104300002480DFE70CB1FFF785FA2C6A44B14646FA
:10431000FFF7D0FE00B16E62641EF9D10020286262
:10432000686A38B10849012738070860BFF34F8F22
:10433000BFF36F8FFFF7ACFB3846BDE8F087000096
:104340002C000020E80A002004ED00E0B84300083B
:104350009D2900080000000000000000C8000000C7
:10436000A0430008D9300008FDFF00000000000055
:1043700080000000AC430008B9030008FDFF000006
:1043800000000000800000000000000000000000AD
:1043900001020304060708090000000001020304EB
:1043A0006D79576865656C5461736B006D79417206
:1043B0006D5461736B0000006D794D61696E5461DD
:1043C000736B0000E4430008000000208C00000034
:1043D00048310008704400088C0000209C1A00003E
:1043E000583100080000000000000000000000003C
:1043F00000000000000000000000000000000000BD
:104400000100000010000000000000000024F40083
:10441000000000000000000000000000000000009C
:10442000000000000000000000000000000000008C
:10443000000000000000000000000000000000007C
:10444000000000000000000000000000000000006C
:10445000000000000000000000000000000000005C
:104460000000000000000000AAAAAAAA00000000A4
:0400000508000131BD
:00000001FF
